:100000000C942A000C9447000C9447000C94470071
:100010000C9447000C9447000C9447000C94470044
:100020000C9447000C9447000C9447000C94470034
:100030000C9447000C9447000C9447000C94470024
:100040000C9447000C9447000C9447000C94470014
:100050000C94470011241FBECFE5D4E0DEBFCDBF16
:1000600010E0A0E6B0E0E6ECF4E002C005900D92EE
:10007000A437B107D9F710E0A4E7B0E001C01D92A2
:10008000AD37B107E1F70E941F020C9461020C9496
:10009000000082E080B90895982F16BE84EA86BFDA
:1000A00006B607FEFDCF990F93B984E886BF06B662
:1000B00007FEFDCF089583B984E886BF06B607FE24
:1000C000FDCF089584EC86BF06B607FEFDCF83B151
:1000D000089584E986BF0895880F82B984EC86BFAD
:1000E000089586B7846886BF06B607FEFDCF81B146
:1000F00090E0887F803609F491E0892F08953E9A38
:10010000309A319A329A379A089597B1907E97B97A
:1001100097B1982B97B9369A86B194B185B1382F9B
:1001200020E0290F311DC90108959C01FB018A308F
:10013000910540F46AE070E00E944D02805D80838A
:10014000118208958436910578F46AE070E00E9487
:100150004D02605D6083C9016AE070E00E944D025B
:10016000805D81831282089583E0283E3807E0F4A1
:10017000C90164E670E00E944D02605D6083C901C0
:1001800064E670E00E944D029C016AE070E00E940B
:100190004D02605D6183C9016AE070E00E944D021A
:1001A000805D82831382089587E22031380740F50D
:1001B000C90168EE73E00E944D02605D6083C90171
:1001C00068EE73E00E944D029C0164E670E00E94BC
:1001D0004D02605D6183C90164E670E00E944D02DA
:1001E0009C016AE070E00E944D02605D6283C9017B
:1001F0006AE070E00E944D02805D8383148208955E
:10020000C90160E177E20E944D02605D6083C9012F
:1002100060E177E20E944D029C0168EE73E00E946B
:100220004D02605D6183C90168EE73E00E944D027A
:100230009C0164E670E00E944D02605D6283C9012A
:1002400064E670E00E944D029C016AE070E00E944A
:100250004D02605D6383C9016AE070E00E944D0257
:10026000805D848315820895AE9A80ED97E0FC014D
:100270003197F1F7AE980197F1F708951F9387FD35
:1002800002C0AD9801C0AD9A182F86FD02C0AC988F
:1002900001C0AC9A15FD02C0AB9801C0AB9A14FD29
:1002A00002C0AA9801C0AA9A0E94340113FD02C09C
:1002B000AD9801C0AD9A12FD02C0AC9801C0AC9AD5
:1002C00011FD02C0AB9801C0AB9A10FD02C0AA9804
:1002D00001C0AA9A0E9434011F910895AF9A0E940A
:1002E0003E010895CF93DF93EC0102C00E946E019E
:1002F00089918823D9F7DF91CF9108950F931F93A8
:1003000008E710E0B8010E949500C8010E94720140
:100310001F910F910895AF980E943E01089584B3F4
:100320008C6F84BBAD98AC98AB9AAA9A0E943401AA
:10033000AD98AC98AB9AAA980E94340180E197E2FC
:100340000197F1F782E00E948B0188E20E948B0105
:1003500081E00E948B018CE00E948B0186E00E946C
:100360008B0181E00E948B0180E49CE90197F1F709
:100370000895889A899A8A9AD4988D988E9882B38B
:10038000806782BB089584990CC0992787FD90955A
:10039000FC01EE0FFF1FE80FF91FE05AFF4F8081AD
:1003A000089585990CC0992787FD9095FC01EE0F63
:1003B000FF1FE80FF91FE05AFF4F818108958699CA
:1003C0000CC0992787FD9095FC01EE0FFF1FE80FE9
:1003D000F91FE05AFF4F8281089580E197E201976B
:1003E000F1F78FEF08959098919A929A80E00E9489
:1003F000C3018F3F11F080936900909A9198929A6F
:1004000081E00E94C3018F3F11F080936900909AB0
:10041000919A929882E00E94C3018F3F11F08093DD
:1004200069008091690008959C01220F331F220FFB
:10043000331F280F391F832F869586950895BB9A01
:10044000D0980E947F000E948F010E94B9010E94F3
:1004500049008EEE0E944C0085E50E945B000E94E0
:1004600069008AE690E00E94720188E893E128EC36
:1004700030E0F9013197F1F70197D9F781E00E9457
:100480008B01C3980E94F3018F3FE1F380539927BA
:1004900087FD90950E947E01F5CFAA1BBB1B51E101
:1004A00007C0AA1FBB1FA617B70710F0A61BB70BE4
:1004B000881F991F5A95A9F780959095BC01CD0189
:0604C0000895F894FFCF3F
:1004C600313233343536373839FF48656C6C6F0056
:0404D6000000000022
:00000001FF
